{
  "contractName": "Election",
  "abi": [
    {
      "constant": true,
      "inputs": [],
      "name": "baCount",
      "outputs": [
        {
          "internalType": "uint256",
          "name": "",
          "type": "uint256"
        }
      ],
      "payable": false,
      "stateMutability": "view",
      "type": "function"
    },
    {
      "constant": false,
      "inputs": [
        {
          "internalType": "address",
          "name": "accountAddress",
          "type": "address"
        }
      ],
      "name": "getOwnerBalance",
      "outputs": [
        {
          "internalType": "uint256",
          "name": "",
          "type": "uint256"
        }
      ],
      "payable": false,
      "stateMutability": "nonpayable",
      "type": "function"
    }
  ],
  "bytecode": "0x608060405234801561001057600080fd5b50610122806100206000396000f3fe6080604052348015600f57600080fd5b506004361060325760003560e01c80637fcf440a14603757806380236f6814608c575b600080fd5b607660048036036020811015604b57600080fd5b81019080803573ffffffffffffffffffffffffffffffffffffffff16906020019092919050505060a8565b6040518082815260200191505060405180910390f35b609260e7565b6040518082815260200191505060405180910390f35b60008173ffffffffffffffffffffffffffffffffffffffff16316000819055508173ffffffffffffffffffffffffffffffffffffffff16319050919050565b6000548156fea265627a7a72315820e9271f4b7245672b486b6532856c67c153ccca3e658c99e1c9e27840b620480a64736f6c63430005100032",
  "source": "pragma solidity ^0.5.12;\n\ncontract Election{\n   \n   uint public baCount;\n\n    function getOwnerBalance(address accountAddress) public returns (uint) {\n        baCount=accountAddress.balance;\n        return accountAddress.balance;\n    }\n\n}\n",
  "sourcePath": "E:\\区块链毕设\\登陆注册-web3.js\\nodelogin-nodelogin\\qb\\contracts\\Election.sol",
  "compiler": {
    "name": "solc",
    "version": "0.5.16+commit.9c3226ce.Emscripten.clang"
  },
  "schemaVersion": "3.0.23",
  "updatedAt": "2020-05-18T08:13:54.885Z",
  "networkType": "ethereum",
  "devdoc": {
    "methods": {}
  },
  "userdoc": {
    "methods": {}
  }
}